{
	"data": {
		"bytecode": {
			"linkReferences": {},
			"object": "6080604052348015600f57600080fd5b5060cc8061001e6000396000f3fe608060405260043610601c5760003560e01c8063c2722916146021575b600080fd5b60276029565b005b6040517f08c379a00000000000000000000000000000000000000000000000000000000081526004018080602001828103825260148152602001807f496e76616c696420706f73742070726f6365737300000000000000000000000081525060200191505060405180910390fdfea265627a7a72315820ad31b8e3a41f2692d820c77dfe6566f890ad0db4453a5e43131210fac6c1aea364736f6c63430005100032",
			"opcodes": "PUSH1 0x80 PUSH1 0x40 MSTORE CALLVALUE DUP1 ISZERO PUSH1 0xF JUMPI PUSH1 0x0 DUP1 REVERT JUMPDEST POP PUSH1 0xCC DUP1 PUSH2 0x1E PUSH1 0x0 CODECOPY PUSH1 0x0 RETURN INVALID PUSH1 0x80 PUSH1 0x40 MSTORE PUSH1 0x4 CALLDATASIZE LT PUSH1 0x1C JUMPI PUSH1 0x0 CALLDATALOAD PUSH1 0xE0 SHR DUP1 PUSH4 0xC2722916 EQ PUSH1 0x21 JUMPI JUMPDEST PUSH1 0x0 DUP1 REVERT JUMPDEST PUSH1 0x27 PUSH1 0x29 JUMP JUMPDEST STOP JUMPDEST PUSH1 0x40 MLOAD PUSH32 0x8C379A000000000000000000000000000000000000000000000000000000000 DUP2 MSTORE PUSH1 0x4 ADD DUP1 DUP1 PUSH1 0x20 ADD DUP3 DUP2 SUB DUP3 MSTORE PUSH1 0x14 DUP2 MSTORE PUSH1 0x20 ADD DUP1 PUSH32 0x496E76616C696420706F73742070726F63657373000000000000000000000000 DUP2 MSTORE POP PUSH1 0x20 ADD SWAP2 POP POP PUSH1 0x40 MLOAD DUP1 SWAP2 SUB SWAP1 REVERT INVALID LOG2 PUSH6 0x627A7A723158 KECCAK256 0xAD BALANCE 0xB8 0xE3 LOG4 0x1F 0x26 SWAP3 0xD8 KECCAK256 0xC7 PUSH30 0xFE6566F890AD0DB4453A5E43131210FAC6C1AEA364736F6C634300051000 ORIGIN "
		},
		"gasEstimates": {
			"creation": {
				"codeDepositCost": "40800",
				"executionCost": "93",
				"totalCost": "40893"
			},
			"external": {
				"postProcess()": "212"
			},
			"internal": {
				"_updatePostProcess(bytes32[] memory)": "infinite",
				"_updateToken(address)": "infinite"
			}
		},
		"methodIdentifiers": {
			"postProcess()": "c2722916"
		}
	},
	"abi": [
		{
			"constant": false,
			"inputs": [],
			"name": "postProcess",
			"outputs": [],
			"payable": true,
			"stateMutability": "payable",
			"type": "function"
		}
	]
}